:020000020000FC
:02000000FFC03F
:02006800CBC10A
:100200000FE700933E000FEF00933D0007E30093DC
:10021000010A03E00093E70503E00093610407E0AF
:100220000093000A09E00093290A04EC0093280ACD
:1002300009E000932B0A04EC00932A0A03E10093DF
:10024000270A08E80093260A04E00093010408E066
:100250000093010400E10093010400E20093010413
:1002600001E00093010402E00093010400E4009324
:10027000010406E00093290803E80093280800E140
:100280000093E20500E40093610400E80093620437
:1002900003E00093270800E80093250800EC009392
:1002A000260878940E9450050091240805FD05E574
:0602B00000932208F7CFC5
:10040000109120080E94500500912008103041F002
:10041000113019F0123039F118950C3224F503C05F
:1004200004368CF400C001E00093060402E000935F
:10043000060400E4009305040E9457040E940D0383
:100440000E945D02189501E00093060402E000930B
:10045000050400E4009306040E940D030E94570364
:100460000E944302189501E00093050402E0009306
:10047000060400E4009306040E9407040E94570447
:060480000E9443021895E2
:1004A00004E00093050408E00093060400E10093D3
:0A04B000060400E20093050408951D
:1006000004E00093050408E00093060400E1009371
:0A061000050400E2009306040895BB
:0E06A00003E00093290A08EE0093280A08954B
:0E08000003E000932B0A08EE00932A0A0895E5
:0E08A0000EE00093290A06EA0093280A089544
:0E0A00000EE000932B0A06EA00932A0A0895DE
:100AA00005E100930B0B00EA00930A0B03E00093AF
:100AB000000B8091060B81FFFCCF02E00093060B38
:020AC000089597
:00000001FF
